:1000000045C0000060C000005EC000005CC0000091
:100010005AC0000058C0000056C0000054C0000084
:1000200052C0000050C000004EC000004CC0000094
:100030004AC0000048C0000046C0000044C00000A4
:1000400042C0000040C000003EC000003CC00000B4
:100050003AC0000038C0000036C0000034C00000C4
:1000600032C0000030C000002EC000002CC00000D4
:100070002AC0000028C0000026C0000024C00000E4
:1000800022C0000020C000001EC0000011241FBEBE
:10009000CFEFD0E1DEBFCDBF13E0A0E0B1E0E4E8F8
:1000A000FBE000E00BBF02C007900D92AA31B10740
:1000B000D9F727E0AAE1B3E001C01D92A432B2074C
:1000C000E1F71BD05DC59CCF1BBA8FEF8ABB9EEFBB
:1000D00098BB97BB15BA90EF94BB90E892BB91BBCD
:1000E00013B882B910926200109261000895F894DA
:1000F000EBDFEDD069D078940895F9DFD6D042E1F6
:1001000051E060E080E02FD140E051E060E081E02C
:100110002AD142E151E060E082E025D10CE113E018
:10012000CEE1D3E085E057D08054914090931F03F7
:1001300080931E0386E04FD08852914090931D0318
:1001400080931C0387E047D090931B0380931A038E
:100150002FE58AEE90E0215080409040E1F700C00A
:100160000000A3D08ED160E081E0BAD080911E0360
:1001700090911F03DDD260E082E0B2D080911C0339
:1001800090911D03D5D260E083E0AAD080911A033C
:1001900090911B03CDD242E053E060E080E0E3D0D9
:1001A0002FE74FE160E080E27ED12FE34FE36FE382
:1001B00080E079D145E0F80160818881FCD145E09B
:1001C0006EE380E2F8D1AECF16B817B880E888B9F0
:1001D00083EC86B9089593EC96B9806487B9369A12
:1001E000349BFECF24B185B116B890E0982F8827B4
:1001F000820F911D08951D9A91E39A95F1F70000E1
:100200001C981E981F9A8BBB81E38A95F1F700001A
:100210001D9808951D9A91E39A95F1F700001C9896
:100220001E9A1F988BBB81E38A95F1F700001D98F9
:1002300008951D9A91E39A95F1F700001C981E9A73
:100240001F9A8BBB81E38A95F1F700001D980895F2
:100250001D9A91E39A95F1F700001C9A1E981F9A37
:100260008BBB81E38A95F1F700001D9808951D9AD4
:1002700091E39A95F1F700001C9A1E9A1F988BBB88
:1002800081E38A95F1F700001D9808951D9A91E386
:100290009A95F1F700001C9A1E9A1F9A8BBB81E376
:1002A0008A95F1F700001D980895CF93DF93D8EB5E
:1002B0008D2FBFDF80E4BDDFC0E480E0E7DFC15009
:1002C000E1F7DF5FD03CA1F7DF91CF9108958FE395
:1002D000B0DF80ECAEDF88EBACDF80E4AACF08951E
:1002E00080932003609323078854A3DF8091230722
:1002F0008A3038F4982F990F890F880F8C5B7BCF49
:10030000089590E00A97982F990F890F880F805CC5
:1003100081CF08951F93CF93DF9390E0EC01CC0F32
:10032000DD1FCC0FDD1F8C0F9D1FEC01C957DF4F68
:1003300015E0809123078A3018F4888189DF02C094
:10034000888195DF115021961111F3CF80912307F9
:100350008A3018F480E07CDF02C080E088DFDF9123
:10036000CF911F910895CF93DF93EA0180932003EB
:1003700060932307B5DF8881882381F0809123076C
:100380008A3011F480E446DF8991C4DF809123072D
:100390008F5F8093230788818111F0CFDF91CF9108
:1003A0000895CF93C62F885444DFC03420F480E4EE
:1003B0008C0F21DF02C08C2F2DDFCF910895EF929B
:1003C000FF920F931F93CF93803408F054C066239D
:1003D0000CF451C0282F269526952695982F9770B6
:1003E00071F0913071F0923071F0933071F094307F
:1003F00071F0953071F0963071F090E80DC091E099
:100400000BC092E009C094E007C098E005C090E1FD
:1004100003C090E201C090E4C62F022F10E0E62E48
:10042000F12CF801F695FE2FEE27F795E795ED5D97
:10043000FC4FEE0DFF1D8081982B9083822FB1DF42
:10044000C03468F41695102F0027179507950D5D99
:100450001C4FF801EE0DFF1D8081FADE0CC01695D1
:10046000102F0027179507950D5D1C4FF801EE0D15
:10047000FF1D8081FCDECF911F910F91FF90EF90C7
:100480000895E3E2F3E023E237E008C01192E817B1
:10049000F907E1F7FC018217930721F0CF0180589B
:1004A0009F4FF4CF08958F929F92AF92BF92CF92B9
:1004B000DF92EF92FF920F931F93CF93DF93621718
:1004C00009F447C0621718F570E0022F10E0061714
:1004D00017070CF463C0C82FD0E0C42ED12CCC1A5F
:1004E000DD0A4B01E12CF12C5801A61AB70AC7010D
:1004F000B50110D3862F682D8C0F61DF8FEF881A1E
:10050000980AEC0CFD1C081519058CF747C070E023
:10051000022F10E0601771070CF440C0C82FD0E024
:100520005E01A41AB1084B01E12CF12C6801C61A36
:10053000D70AC701B601EED2862F682D8C0F3FDF98
:1005400081E0881A9108EA0CFB1C801691068CF752
:1005500025C0841711F1841780F4C82FD0E0E42E51
:10056000F12CEC16FD06D4F0162F612F8C2F27DF0F
:100570002196EC16FD06CCF711C0C82FD0E0E42E72
:10058000F12CCE15DF0554F0162F612F8C2F17DFBD
:100590002197CE15DF05CCF701C011DFDF91CF9198
:1005A0001F910F91FF90EF90DF90CF90BF90AF9091
:1005B0009F908F9008952F923F924F925F926F92EB
:1005C0007F928F929F92AF92BF92CF92DF92EF92E3
:1005D000FF920F931F93CF93DF93382E262E062F73
:1005E00010E0642E712C2301440C551C460C571C42
:1005F0005594479455944794E801C419D509040DBE
:10060000151D0C171D077CF1669C6001679CD00CC2
:10061000D00C1124E62EF12CCE018E199F09889F53
:100620009001899F300D300D11244601821A930AE2
:10063000092C000CAA08BB08C501B40188D117D247
:1006400020E030E040E05FE3F0D053D1B62E6C2FD5
:10065000832D8B0DB4DE6C2F832D8B19B0DE21968C
:100660000C171D07CCF6832D90E0EC01C419D509B9
:10067000480E591E4C165D0674F1669C8001679CFD
:10068000100D100D11247C01CE018E199F09889F39
:100690009001899F300D300D11244801821A930A70
:1006A000092C000CAA08BB08C501B40150D1DFD148
:1006B00020E030E040E05FE3B8D01BD1D62E622DC1
:1006C0006D0D8C2F7CDE622D6D198C2F78DE2196BE
:1006D0004C165D06CCF6DF91CF911F910F91FF90E4
:1006E000EF90DF90CF90BF90AF909F908F907F90D2
:1006F0006F905F904F903F902F9008959DEC899F51
:10070000912D1124969596959695990F292F220F44
:10071000220F920F891B982F31F4611104C080E2DF
:10072000F9DD80E0089580E3890FF4DD81E008952C
:100730000F931F93CF93DF93AC019C0132952295C9
:100740002F7023273F702327A7E4B3E0F6D1EC01F5
:10075000D695C795D695C795D695C79520E137E22A
:10076000C29FC001C39F900DD29F900D1124EA013A
:10077000C81BD90B9E01369527953695279536953A
:100780002795A5ECB0E2D9D18C01129502950F7096
:1007900001271F70012760E0802FB0DF482F28EE6F
:1007A00033E0029FC001039F900D129F900D112412
:1007B000C81BD90B9E013695279536952795ABE733
:1007C000B4E1BBD18C0116950795642F802F96DF7D
:1007D000482F24E6209FC001219F900D1124C81BA3
:1007E000D90B9E01ADECBCECA8D18C0116950795F8
:1007F0001695079516950795642F802F7FDFC80102
:10080000880F991F000F111F000F111F000F111FDC
:10081000080F191FCE01801B910B805D7BDDDF91DE
:10082000CF911F910F9108955058BB27AA270ED042
:10083000E0C0D1D030F0D6D020F031F49F3F11F499
:100840001EF4C6C00EF4E095E7FBBCC0E92FE2D071
:1008500080F3BA17620773078407950718F071F4DD
:100860009EF5FAC00EF4E0950B2EBA2FA02D0B01C9
:10087000B90190010C01CA01A0011124FF27591BE5
:1008800099F0593F50F4503E68F11A16F040A22FEB
:10089000232F342F4427585FF3CF4695379527955C
:1008A000A795F0405395C9F77EF41F16BA0B620B5B
:1008B000730B840BBAF09150A1F0FF0FBB1F661FA2
:1008C000771F881FC2F70EC0BA0F621F731F841FE5
:1008D00048F4879577956795B795F7959E3F08F00B
:1008E000B3CF9395880F08F09927EE0F97958795CA
:1008F000089598D088F09F5790F0B92F9927B75155
:10090000A0F0D1F0660F771F881F991F1AF0BA95D3
:10091000C9F712C0B13081F09FD0B1E008959CC0FA
:10092000672F782F8827B85F39F0B93FCCF38695C9
:1009300077956795B395D9F73EF490958095709526
:1009400061957F4F8F4F9F4F0895E89409C097FBA3
:100950003EF490958095709561957F4F8F4F9F4F96
:100960009923A9F0F92F96E9BB279395F6958795DA
:1009700077956795B795F111F8CFFAF4BB0F11F49D
:1009800060FF1BC06F5F7F4F8F4F9F4F16C0882344
:1009900011F096E911C0772321F09EE8872F762F7A
:1009A00005C0662371F096E8862F70E060E02AF0BB
:1009B0009A95660F771F881FDAF7880F96958795A7
:1009C00097F9089597F99F6780E870E060E00895CF
:1009D0009FEF80EC089500240A9416161706180657
:1009E0000906089500240A94121613061406050633
:1009F0000895092E0394000C11F4882352F0BB0FC4
:100A000040F4BF2B11F460FF04C06F5F7F4F8F4F26
:100A10009F4F089557FD9058440F551F59F05F3F61
:100A200071F04795880F97FB991F61F09F3F79F010
:100A300087950895121613061406551FF2CF469592
:100A4000F1DF08C0161617061806991FF1CF869514
:100A50007105610508940895E894BB2766277727F8
:100A6000CB0197F9089511F40EF4B2CF3EC0DADF4E
:100A7000D0F39923D9F3CEF39F57550B87FF43D07B
:100A80000024A0E640EA900180585695979528F4F6
:100A9000805C660F771F881F20F0261737074807EE
:100AA00030F4621B730B840B202931294A2BA69545
:100AB00017940794202531254A2758F7660F771F8A
:100AC000881F20F026173707480730F4620B730B96
:100AD000840B200D311D411DA09581F7B901842F94
:100AE0009158880F9695879508959F3F31F09150C2
:100AF00020F4879577956795B795880F911D969502
:100B0000879597F9089591505040660F771F881F79
:100B1000D2F7089597FB072E16F4009406D077FDC0
:100B200008D01AD007FC05D03EF4909581959F4FD0
:100B30000895709561957F4F0895A29FB001B39F6E
:100B4000C001A39F700D811D1124911DB29F700DD6
:100B5000811D1124911D0895AA1BBB1B51E107C0E3
:100B6000AA1FBB1FA617B70710F0A61BB70B881F3D
:100B7000991F5A95A9F780959095BC01CD010895CC
:040B8000F894FFCF17
:100B840020494E484120554E4956455253495459DF
:100B940020003D3D3D3D3D3D3D3D3D3D3D3D3D3DDB
:100BA4003D3D3D3D3D3D00000000000000004F0084
:100BB400000007000700147F147F14242A7F2A12E0
:100BC40023130864623649552250000503000000CF
:100BD4001C2241000041221C0014083E081408088D
:100BE4003E0808005030000008080808080060604B
:100BF400000020100804023E5149453E00427F4057
:100C04000042615149462141454B311814127F106D
:100C140027454545393C4A494930017109050336A0
:100C240049494936064949291E003636000000560E
:100C34003600000814224100141414141400412234
:100C440014080201510906324979413E7E111111FD
:100C54007E7F494949363E414141227F4141221C20
:100C64007F494949417F090909013E4149497A7F40
:100C74000808087F00417F41002040413F017F0870
:100C84001422417F404040407F020C027F7F0408D1
:100C9400107F3E4141413E7F090909063E415121F1
:100CA4005E7F09192946264949493201017F01011C
:100CB4003F4040403F1F2040201F3F4038403F639B
:100CC4001408146307087008076151494543007FFD
:100CD40041410002040810200041417F0004020148
:100CE4000204404040404000010204002054545497
:100CF400787F484444383844444420384444487F46
:100D04003854545418087E0901020C5252523E7F42
:100D14000804047800047D00002040443D007F1056
:100D240028440000417F40007C0418047C7C0804B3
:100D3400047838444444387C1414140808141418EF
:100D44007C7C080404084854545420043F44402044
:100D54003C4040207C1C2040201C3C4030403C4413
:100D6400281028440C5050503C4464544C4400080F
:100D740036410000007700000041360800080408EE
:100D84001008414443352C204144433620416363D9
:0A0D9400656C65726174696F6E0092
:00000001FF
