:1000000045C0000061C000005FC000005DC000008E
:100010005BC0000059C0000057C0000055C0000080
:1000200053C0000051C000004FC000004DC0000090
:100030004BC0000049C0000047C0000045C00000A0
:1000400043C0000041C000003FC000003DC00000B0
:100050003BC0000039C0000037C0000035C00000C0
:1000600033C0000031C000002FC000002DC00000D0
:100070002BC0000029C0000027C0000025C00000E0
:1000800023C0000021C000001FC0000011241FBEBB
:10009000CFEFD0E1DEBFCDBF11E0A0E0B1E0ECEDED
:1000A000F6E100E00BBF02C007900D92A030B1074F
:1000B000D9F725E0A0E0B1E001C01D92A430B2075D
:1000C000E1F716D00C946C0B9BCF1BBA8FEF8ABB59
:1000D0009EEF98BB87BB15BA90EF94BB90E892BB9C
:1000E00091BB13B882B9109262001092610008951A
:1000F000ECDF0E94E10A0E94CF0A0E945A0BECD268
:1001000008D0C9D2F8D764E170E08AE090E0C8D0A6
:10011000F6CFCF93DF936EE670E08DE390E00E9420
:10012000F80A6FE670E08DE390E00E94F80A60E75D
:1001300070E08DE390E00E94F80A6EE670E08CE3D8
:1001400090E00E94F80A60E770E08CE390E00E9483
:10015000F80A6CE670E08BE390E00E94F80A6DE626
:1001600070E08BE390E00E94F80A6EE670E08BE3AB
:1001700090E00E94F80A60E770E08BE390E00E9454
:10018000F80A6BE670E08AE390E00E94F80A6DE6F8
:1001900070E08AE390E00E94F80A6EE670E08AE37D
:1001A00090E00E94F80A60E770E08AE390E00E9425
:1001B000F80A61E770E08AE390E00E94F80AC5E679
:1001C000D0E0BE0189E390E00E94F80A2196CF3684
:1001D000D105B9F760E770E089E390E00E94F80A82
:1001E00061E770E089E390E00E94F80AC5E6D0E09C
:1001F000BE0188E390E00E94F80A2196CD36D10531
:10020000B9F73CC0BE0187E390E00E94F80A21964E
:10021000C237D105B9F76DE670E086E390E00E9441
:10022000F80A6EE670E086E390E00E94F80A6FE656
:1002300070E086E390E00E94F80ACFE3D0E063E646
:1002400070E0CE010E94F80A6FE770E0CE010E94D4
:10025000F80A2197C333D10591F7C3E6D0E0BE0178
:1002600084E390E00E94F80ABE018FE390E00E94D0
:10027000F80A2196C038D10591F70FC061E770E008
:1002800088E390E00E94F80A65E670E087E390E07A
:100290000E94F80ACCE6D0E0B5CFDF91CF91089567
:1002A0002F923F924F925F926F927F928F929F9286
:1002B000AF92BF92CF92DF92EF92FF920F931F9374
:1002C000CF93DF93CDB7DEB764970FB6F894DEBF58
:1002D0000FBECDBF9C8B8B8B8B012B0182E0481A0C
:1002E0005108EB88FC8894E0E91AF108B201C701D3
:1002F0000E94F80A480181E0881A9108B401C701F8
:100300000E94F80AB801C7010E94F80AC8010596C0
:100310009A838983BC01C7010E94F80A380196E0DC
:10032000690E711CB301C7010E94F80A180187E029
:10033000280E311CB101C7010E94F80AEB88FC8825
:1003400095E0E91AF108B401C7010E94F80AB80162
:10035000C7010E94F80AC80101969C838B83BC01E7
:10036000C7010E94F80AC80102969A878987BC01D2
:10037000C7010E94F80AC80103969C878B87BC01BD
:10038000C7010E94F80AC80104969E838D83BC01B0
:10039000C7010E94F80A69817A81C7010E94F80AA0
:1003A000B301C7010E94F80AEB88FC8896E0E91ABD
:1003B000F108B201C7010E94F80AB401C7010E9406
:1003C000F80A6B817C81C7010E94F80A6D817E81E9
:1003D000C7010E94F80A69817A81C7010E94F80A60
:1003E000B301C7010E94F80AB101C7010E94F80ACF
:1003F000C801089698878F83BC01C7010E94F80A3C
:10040000C80109969A8B898BBC01C7010E94F80A22
:10041000C80103979E878D87EB88FC8897E0E91ACF
:10042000F1086D857E85C7010E94F80AB201C701F7
:100430000E94F80A6B817C81C7010E94F80A6985D5
:100440007A85C7010E94F80A6B857C85C7010E94E6
:10045000F80A6D817E81C7010E94F80AB101C701C7
:100460000E94F80A6F817885C7010E94F80AEB881C
:10047000FC8888E0E81AF1086D857E85C7010E9436
:10048000F80AB201C7010E94F80AB101C7010E942F
:10049000F80A6F817885C7010E94F80AEB88FC880A
:1004A00099E0E91AF1086D857E85C7010E94F80A76
:1004B000B201C7010E94F80AB801C7010E94F80AF8
:1004C0006B817C81C7010E94F80A6D817E81C70122
:1004D0000E94F80A69817A81C7010E94F80AB10175
:1004E000C7010E94F80A6F817885C7010E94F80A47
:1004F000C8010597988B8F8768019BE0C90ED11CB6
:10050000AF84B888EB88FC888AE0E81AF108B50166
:10051000C7010E94F80A9FEFA91AB90AAC14BD04DA
:10052000B1F78B899C897C019BE0E91AF1086F8502
:100530007889C7010E94F80A68018AE0C80ED11CB8
:10054000B601C7010E94F80AEB88FC889CE0E91A12
:10055000F1086F857889C7010E94F80AB8016450D4
:100560007109C7010E94F80A6D857E85C7010E9446
:10057000F80AB201C7010E94F80AB401C7010E943B
:10058000F80AB301C7010E94F80AB101C7010E942D
:10059000F80A6F817885C7010E94F80A69897A890B
:1005A000C7010E94F80AB601C7010E94F80AEB8849
:1005B000FC888DE0E81AF108B401C7010E94F80A2E
:1005C000B801C7010E94F80A6B817C81C7010E94B3
:1005D000F80A69857A85C7010E94F80A6B857C85CF
:1005E000C7010E94F80A6D817E81C7010E94F80A46
:1005F00069817A81C701FCD7B301C701F9D7EB88BC
:10060000FC889EE0E91AF108B401C701F1D7B301F3
:10061000C701EED78B899C890F9798878F83B40188
:10062000E7D7B8018F819885E3D76B817C818F8173
:100630009885DED769857A858F819885D9D76B852E
:100640007C858F819885D4D76D817E818F819885B7
:10065000CFD769817A818F819885CAD7B3018F817D
:100660009885C6D764960FB6F894DEBF0FBECDBF8F
:10067000DF91CF911F910F91FF90EF90DF90CF907E
:10068000BF90AF909F908F907F906F905F904F90B2
:100690003F902F900895CF93DF93C0E0D0E0BE014C
:1006A0008FE390E0A5D7BE0183E390E0A1D7219628
:1006B000C232D105A1F7CFE3D0E060E070E0CE0117
:1006C00097D761E270E0CE0193D72197C333D1056C
:1006D000A1F7DF91CF910895CF93DF93C8E0D0E0E9
:1006E000BE018DE290E084D72196C832D105C1F7D2
:1006F00068E070E08CE290E07BD76BE170E08CE228
:1007000090E076D762E270E08CE290E071D767E229
:1007100070E08CE290E06CD768E070E08BE290E0F3
:1007200067D76BE170E08BE290E062D762E270E045
:100730008BE290E05DD767E270E08BE290E058D703
:1007400068E070E08AE290E053D769E070E08AE206
:1007500090E04ED76AE070E08AE290E049D76BE023
:1007600070E08AE290E044D765E170E08AE290E0D0
:100770003FD766E170E08AE290E03AD767E170E047
:100780008AE290E035D76BE170E08AE290E030D702
:1007900062E270E08AE290E02BD764E270E08AE2E5
:1007A00090E026D765E270E08AE290E021D766E229
:1007B00070E08AE290E01CD767E270E08AE290E0A5
:1007C00017D768E070E089E290E012D76AE070E045
:1007D00089E290E00DD76BE070E089E290E008D705
:1007E00066E170E089E290E003D767E170E089E2BA
:1007F00090E0FED66BE170E089E290E0F9D665E228
:1008000070E089E290E0F4D666E270E089E290E080
:10081000EFD667E270E089E290E0EAD668E070E047
:1008200088E290E0E5D66DE070E088E290E0E0D606
:100830006EE070E088E290E0DBD66FE070E088E286
:1008400090E0D6D660E170E088E290E0D1D661E138
:1008500070E088E290E0CCD662E170E088E290E05F
:10086000C7D663E170E088E290E0C2D664E170E050
:1008700088E290E0BDD665E170E088E290E0B8D60D
:1008800066E170E088E290E0B3D66BE170E088E268
:1008900090E0AED662E270E088E290E0A9D667E22E
:1008A00070E088E290E0A4D668E070E087E290E033
:1008B0009FD66DE070E087E290E09AD666E170E046
:1008C00087E290E095D66BE170E087E290E090D609
:1008D00062E270E087E290E08BD667E270E087E248
:1008E00090E086D668E070E086E290E081D66DE028
:1008F00070E086E290E07CD666E170E086E290E00F
:1009000077D66BE170E086E290E072D66DE170E040
:1009100086E290E06DD662E270E086E290E068D612
:1009200067E270E086E290E063D668E070E086E21D
:1009300090E05ED66DE070E086E290E059D666E128
:1009400070E086E290E054D66BE170E086E290E0E1
:100950004FD662E270E086E290E04AD667E270E04D
:1009600086E290E045D668E070E085E290E040D60F
:100970006DE070E085E290E03BD666E170E085E2F4
:1009800090E036D66BE170E085E290E031D662E22D
:1009900070E085E290E02CD667E270E085E290E0BE
:1009A00027D668E070E084E290E022D66DE070E047
:1009B00084E290E01DD666E170E084E290E018D613
:1009C0006BE170E084E290E013D662E270E084E2D2
:1009D00090E00ED667E270E084E290E009D668E02D
:1009E00070E083E290E004D66DE070E083E290E096
:1009F000FFD56EE070E083E290E0FAD565E170E04B
:100A000083E290E0F5D566E170E083E290E0F0D516
:100A10006BE170E083E290E0EBD562E270E083E2AC
:100A200090E0E6D563E270E083E290E0E1D564E235
:100A300070E083E290E0DCD565E270E083E290E074
:100A4000D7D567E270E083E290E0D2D568E070E04D
:100A500082E290E0CDD56DE070E082E290E0C8D512
:100A60006EE070E082E290E0C3D56FE070E082E279
:100A700090E0BED566E170E082E290E0B9D565E134
:100A800070E082E290E0B4D564E170E082E290E050
:100A9000AFD56BE170E082E290E0AAD562E270E04F
:100AA00082E290E0A5D564E270E082E290E0A0D519
:100AB00065E270E082E290E09BD567E270E082E25E
:100AC00090E096D568E070E081E290E091D56DE02D
:100AD00070E081E290E08CD56EE070E081E290E021
:100AE00087D56FE070E081E290E082D560E170E050
:100AF00081E290E07DD561E170E081E290E078D51F
:100B000062E170E081E290E073D563E170E081E240
:100B100090E06ED564E170E081E290E069D565E136
:100B200070E081E290E064D566E170E081E290E0FF
:100B30005FD56BE170E081E290E05AD562E270E04F
:100B400081E290E055D567E270E081E290E050D517
:100B500068E070E080E290E04BD56BE170E080E20D
:100B600090E046D56CE170E080E290E041D56DE127
:100B700070E080E290E03CD56EE170E080E290E0D1
:100B800037D56FE170E080E290E032D560E270E04E
:100B900080E290E02DD561E270E080E290E028D51F
:100BA00062E270E080E290E023D567E270E080E2EC
:100BB00090E01ED568E070E08FE190E019D567E223
:100BC00070E08FE190E014D568E070E08EE190E095
:100BD0000FD56DE170E08EE190E00AD56EE170E036
:100BE0008EE190E005D56FE170E08EE190E000D5F8
:100BF00067E270E08EE190E0FBD468E070E08DE1A8
:100C000090E0F6D46FE170E08DE190E0F1D46EE118
:100C100070E08DE190E0ECD467E270E08DE190E06F
:100C2000E7D468E070E08CE190E0E2D460E170E04D
:100C30008CE190E0DDD461E170E08CE190E0D8D40B
:100C400062E170E08CE190E0D3D467E270E08CE187
:100C500090E0CED468E070E08BE190E0C9D461E12F
:100C600070E08BE190E0C4D462E170E08BE190E051
:100C7000BFD467E270E08BE190E0BAD468E070E046
:100C80008AE190E0B5D46AE070E08AE190E0B0D407
:100C90006BE070E08AE190E0ABD46CE070E08AE158
:100CA00090E0A6D461E270E08AE190E0A1D462E233
:100CB00070E08AE190E09CD463E270E08AE190E029
:100CC00097D467E270E08AE190E092D467E070E048
:100CD00089E190E08DD468E070E089E190E088D40B
:100CE0006BE070E089E190E083D46CE070E089E132
:100CF00090E07ED462E270E089E190E079D463E232
:100D000070E089E190E074D467E270E089E190E0FE
:100D10006FD468E270E089E190E06AD466E070E048
:100D200088E190E065D467E070E088E190E060D40D
:100D300068E070E088E190E05BD467E270E088E111
:100D400090E056D468E270E088E190E051D469E226
:100D500070E088E190E04CD4C5E0D0E0BE0187E1CE
:100D600090E046D42196CB32D105C1F7C4E0D0E063
:100D7000BE0186E190E03CD42196CC32D105C1F78A
:100D800064E070E085E190E033D46BE270E085E1EF
:100D900090E02ED464E070E084E190E029D46FE02C
:100DA00070E084E190E024D462E170E084E190E0BE
:100DB0001FD464E170E084E190E01AD465E170E052
:100DC00084E190E015D466E170E084E190E010D415
:100DD00067E170E084E190E00BD469E170E084E1C8
:100DE00090E006D46BE170E084E190E001D46DE125
:100DF00070E084E190E0FCD36FE170E084E190E08A
:100E0000F7D360E270E084E190E0F2D361E270E059
:100E100084E190E0EDD362E270E084E190E0E8D319
:100E20006BE270E084E190E0E3D364E070E083E1A2
:100E300090E0DED36FE070E083E190E0D9D362E12F
:100E400070E083E190E0D4D364E170E083E190E06E
:100E5000CFD367E170E083E190E0CAD369E170E04D
:100E600083E190E0C5D36BE170E083E190E0C0D313
:100E70006DE170E083E190E0BBD36FE170E083E16E
:100E800090E0B6D36BE270E083E190E0B1D364E030
:100E900070E082E190E0ACD36FE070E082E190E03E
:100EA000A7D360E170E082E190E0A2D361E170E05D
:100EB00082E190E09DD362E170E082E190E098D31E
:100EC00064E170E082E190E093D367E170E082E159
:100ED00090E08ED369E170E082E190E089D36BE12C
:100EE00070E082E190E084D36DE170E082E190E017
:100EF0007FD36FE170E082E190E07AD360E270E04E
:100F000082E190E075D361E270E082E190E070D31D
:100F100062E270E082E190E06BD36BE270E082E12C
:100F200090E066D364E070E081E190E061D36FE02F
:100F300070E081E190E05CD362E170E081E190E0FB
:100F400057D364E170E081E190E052D367E170E053
:100F500081E190E04DD369E170E081E190E048D318
:100F60006AE170E081E190E043D36BE170E081E100
:100F700090E03ED36CE170E081E190E039D36DE127
:100F800070E081E190E034D36FE170E081E190E0C6
:100F90002FD36BE270E081E190E02AD364E070E04F
:100FA00080E190E025D36FE070E080E190E020D315
:100FB00062E170E080E190E01BD364E170E080E1E9
:100FC00090E016D365E170E080E190E011D366E136
:100FD00070E080E190E00CD367E170E080E190E0A8
:100FE00007D369E170E080E190E002D36AE170E04C
:100FF00080E190E0FDD26CE170E080E190E0F8D219
:101000006DE170E080E190E0F3D26FE170E080E1AB
:1010100090E0EED260E270E080E190E0E9D261E23F
:1010200070E080E190E0E4D262E270E080E190E084
:10103000DFD26BE270E080E190E0DAD264E070E051
:101040008FE090E0D5D26BE270E08FE090E0D0D2FC
:10105000C4E0D0E0BE018EE090E0CAD22196CC324E
:10106000D105C1F76CE170E08DE090E0C1D26DE197
:1010700070E08DE090E0BCD265E270E08DE090E041
:10108000B7D266E270E08DE090E0B2D26DE170E040
:101090008CE090E0ADD265E270E08CE090E0A8D208
:1010A0006DE170E08BE090E0A3D265E270E08BE050
:1010B00090E09ED2CDE1D0E0BE018AE090E098D2EF
:1010C0002196C632D105C1F76DE170E089E090E06C
:1010D0008FD265E270E089E090E08AD2CDE1D0E085
:1010E000BE0188E090E084D22196C632D105C1F7D6
:1010F000DF91CF91089562E370E08FE390E078D2C2
:1011000063E370E08FE390E073D267E370E08FE316
:1011100090E06ED268E370E08FE390E069D26EE415
:1011200070E08FE390E064D260E570E08FE390E0E0
:101130005FD262E570E08FE390E05AD266E570E03E
:101140008FE390E055D267E570E08FE390E050D2F6
:1011500062E370E08EE390E04BD263E370E08EE3F5
:1011600090E046D268E370E08EE390E041D269E31C
:1011700070E08EE390E03CD26FE470E08EE390E0AC
:1011800037D260E570E08EE390E032D262E570E045
:101190008EE390E02DD263E570E08EE390E028D2FC
:1011A00065E570E08EE390E023D266E570E08EE3C3
:1011B00090E01ED262E370E08DE390E019D263E329
:1011C00070E08DE390E014D264E370E08DE390E092
:1011D0000FD269E370E08DE390E00AD26AE370E039
:1011E0008DE390E005D26FE470E08DE390E000D2F3
:1011F00060E570E08DE390E0FBD161E570E08DE3A8
:1012000090E0F6D162E570E08DE390E0F1D163E526
:1012100070E08DE390E0ECD165E570E08DE390E067
:10122000E7D163E370E08CE390E0E2D164E370E047
:101230008CE390E0DDD16AE370E08CE390E0D8D1FC
:101240006EE470E08CE390E0D3D16FE470E08CE367
:1012500090E0CED160E570E08CE390E0C9D161E52B
:1012600070E08CE390E0C4D162E570E08CE390E044
:10127000BFD163E570E08CE390E0BAD164E570E043
:101280008CE390E0B5D165E570E08CE390E0B0D1FF
:1012900063E370E08BE390E0ABD164E370E08BE359
:1012A00090E0A6D165E370E08BE390E0A1D166E326
:1012B00070E08BE390E09CD16AE370E08BE390E018
:1012C00097D16EE470E08BE390E092D160E570E03E
:1012D0008BE390E08DD161E570E08BE390E088D105
:1012E00062E570E08BE390E083D164E570E08BE32E
:1012F00090E07ED164E370E08AE390E079D165E329
:1013000070E08AE390E074D166E370E08AE390E0F5
:101310006FD167E370E08AE390E06AD168E370E040
:101320008AE390E065D169E370E08AE390E060D100
:101330006AE370E08AE390E05BD16EE470E08AE3F8
:1013400090E056D16FE470E08AE390E051D160E51F
:1013500070E08AE390E04CD162E570E08AE390E0CF
:1013600047D163E570E08AE390E042D164E570E044
:101370008AE390E03DD165E370E089E390E038D105
:1013800066E370E089E390E033D167E370E089E3DE
:1013900090E02ED168E370E089E390E029D169E321
:1013A00070E089E390E024D16EE470E089E390E09E
:1013B0001FD160E570E089E390E01AD162E570E04A
:1013C00089E390E015D164E570E089E390E010D105
:1013D0006EE470E088E390E00BD16FE470E088E3A6
:1013E00090E006D160E570E088E390E001D162E52D
:1013F00070E088E390E0FCD063E570E088E390E083
:10140000F7D064E570E088E390E0F2D06FE470E03C
:1014100087E390E0EDD060E570E087E390E0E8D00E
:1014200062E570E087E390E0E3D063E570E087E396
:1014300090E0DED06FE470E086E390E0D9D060E524
:1014400070E086E390E0D4D062E570E086E390E05F
:10145000CFD063E570E086E390E0CAD06FE470E03F
:1014600085E390E0C5D060E570E085E390E0C0D012
:1014700062E570E085E390E0BBD063E570E085E372
:1014800090E0B6D06FE470E084E390E0B1D060E526
:1014900070E084E390E0ACD062E570E084E390E03B
:1014A000A7D063E570E084E390E0A2D06FE470E041
:1014B00083E390E09DD060E570E083E390E098D016
:1014C00061E570E083E390E093D062E570E083E350
:1014D00090E08ED063E570E083E390E089D061E531
:1014E00070E082E390E084C008951D9A91E39A959C
:1014F000F1F700001C981E981F9A8BBB81E38A9518
:10150000F1F700001D9808951D9A91E39A95F1F75F
:1015100000001C981E9A1F988BBB81E38A95F1F7F7
:1015200000001D9808951D9A91E39A95F1F7000027
:101530001C981E9A1F9A8BBB81E38A95F1F70000D5
:101540001D9808951D9A91E39A95F1F700001C9A51
:101550001E981F9A8BBB81E38A95F1F700001D98B6
:1015600008951D9A91E39A95F1F700001C9A1E9A2E
:101570001F988BBB81E38A95F1F700001D980895B1
:101580001D9A91E39A95F1F700001C9A1E9A1F9AF2
:101590008BBB81E38A95F1F700001D980895CF93E6
:1015A000DF93D8EB8D2FBFDF80E4BDDFC0E480E0A8
:1015B000E7DFC150E1F7DF5FD03CA1F7DF91CF91CA
:1015C00008958FE3B0DF80ECAEDF88EBACDF80E422
:1015D000AACF0895CF93C62F8854A5DFC03420F436
:1015E00080E48C0F82DF02C08C2F8EDFCF910895B4
:1015F000EF92FF920F931F93CF93803408F054C063
:1016000066230CF451C0282F269526952695982FF1
:10161000977071F0913071F0923071F0933071F0F9
:10162000943071F0953071F0963071F090E80DC003
:1016300091E00BC092E009C094E007C098E005C0BB
:1016400090E103C090E201C090E4C62F022F10E0A9
:10165000E62EF12CF801F695FE2FEE27F795E7958B
:10166000ED5FFE4FEE0DFF1D8081982B9083822F42
:10167000B1DFC03468F41695102F00271795079531
:101680000D5F1E4FF801EE0DFF1D80815BDF0CC06A
:101690001695102F0027179507950D5F1E4FF8011F
:1016A000EE0DFF1D80815DDFCF911F910F91FF90A7
:1016B000EF900895E3E0F1E023E035E008C01192F7
:1016C000E817F907E1F7FC018217930721F0CF0132
:0C16D00080589F4FF4CF0895F894FFCF8E
:00000001FF
