S0120000496E74657272757074312E7372656314
S113000045C0000054C0000051C000004FC00000B3
S11300104DC000004BC0000049C0000047C00000B4
S113002045C0000043C0000041C000003FC00000C4
S11300303DC000003BC0000039C0000037C00000D4
S113004035C0000033C0000031C000002FC00000E4
S11300502DC000002BC0000029C0000027C00000F4
S113006025C0000023C0000021C000001FC0000004
S11300701DC000001BC0000019C0000017C0000014
S113008015C0000013C0000011C0000011241FBEE1
S1130090CFEFD0E1DEBFCDBF21E0A0E0B1E001C0F1
S11300A01D92A130B207E1F744D052C0A9CF1F92EC
S11300B00F920FB60F9211248F93809100018095B7
S11300C0809300018F910F900FBE0F901F90189591
S11300D08FB780688FBF82E080936A0081E089BF18
S11300E011BA089528E030E08EEF4FE956E891E028
S11300F0415050409040E1F700C0000088BB880F99
S113010081602150310989F7089528E030E08EE7B5
S11301104FE956E891E0415050409040E1F700C06B
S1130120000088BB8695806888BB2150310981F71F
S11301300895CEDF8FEF87BB8FE088BB109200015C
S113014080910001882311F0CDDFFACFDEDFF8CFF4
S1070150F894FFCF4D
S9030000FC
