S00F000062757A7A6572312E7372656342
S113000045C000004BC0000049C0000047C00000CC
S113001045C0000043C0000041C000003FC00000D4
S11300203DC000003BC0000039C0000037C00000E4
S113003035C0000033C0000031C000002FC00000F4
S11300402DC000002BC0000029C0000027C0000004
S113005025C0000023C0000021C000001FC0000014
S11300601DC000001BC0000019C0000017C0000024
S113007015C0000013C0000011C000000FC0000034
S11300800DC000000BC0000009C0000011241FBEF9
S1130090CFEFD0E1DEBFCDBF02D02FC1B1CF11BAB7
S11300A04DD080B38D3F21F08E3F19F470D001C044
S11300B083D02FEF8FE794E0215080409040E1F708
S11300C000C00000EECF181619065CF420E030E002
S11300D045E04A95F1F700002F5F3F4F82179307E1
S11300E0B9F70895EF92FF920F931F93CF93DF9385
S11300F07B0128EE33E0AC01429FC001439F900D89
S1130100529F900D1124E5D06115710581F08B018A
S1130110C5E6D0E0888180618883C701D4DF888107
S11301208F7E8883C701CFDF0150110999F7DF91D2
S1130130CF911F910F91FF90EF90089565E670E0C5
S113014083E290E0CFDF6AE570E08EE190E0CADF01
S113015060E570E083E290E0C5DF6CE470E08EE17E
S113016090E0C0DF64E470E083E290E0BBDF6DE325
S113017070E08EE190E0B6DF66E370E083E290E049
S1130180B1DF63E370E08EE190E0ACCF089568ECFA
S113019070E083E290E0A6DF6FE970E083E290E034
S11301A0A1DF66E870E083E290E09CDF65E670E042
S11301B083E290E097CF089568EC70E083E290E0EA
S11301C091DF2FEF85EA9EE0215080409040E1F7D7
S11301D000C000006FE970E083E290E083DF2FEF5E
S11301E085EA9EE0215080409040E1F700C0000085
S11301F066E870E083E290E075DF2FEF85EA9EE029
S1130200215080409040E1F700C0000068EC70E0AD
S113021083E290E067DF2FEF85EA9EE02150804083
S11302209040E1F700C000006FE970E083E290E0E5
S113023059DF2FEF85EA9EE0215080409040E1F79E
S113024000C0000066E870E083E290E04BDF2FEF2F
S113025085EA9EE0215080409040E1F700C0000014
S113026068E770E083E290E03DDF2FEF85EA9EE0EF
S1130270215080409040E1F700C0000068E770E042
S113028083E290E02FDF2FEF85EA9EE0215080404B
S11302909040E1F700C0000068E770E083E290E07E
S11302A021DF2FEF85EA9EE0215080409040E1F766
S11302B000C0000066E870E083E290E013DF2FEFF7
S11302C081EF9BE2215080409040E1F700C00000A4
S11302D00895AA1BBB1B51E107C0AA1FBB1FA61789
S11302E0B70710F0A61BB70B881F991F5A95A9F7DB
S11102F080959095BC01CD010895F894FFCF40
S9030000FC
