S01500006A6F79737469636B5F746573742E7372656380
S113000045C0000060C000005EC000005CC000008D
S11300105AC0000058C0000056C0000054C0000080
S113002052C0000050C000004EC000004CC0000090
S11300304AC0000048C0000046C0000044C00000A0
S113004042C0000040C000003EC000003CC00000B0
S11300503AC0000038C0000036C0000034C00000C0
S113006032C0000030C000002EC000002CC00000D0
S11300702AC0000028C0000026C0000024C00000E0
S113008022C0000020C000001EC0000011241FBEBA
S1130090CFEFD0E1DEBFCDBF13E0A0E0B1E0ECEEE6
S11300A0F2E000E00BBF02C007900D92AE3AB10738
S11300B0D9F727E0AEEAB3E001C01D92A23BB20734
S11300C0E1F738D011C19CCF16B817B880E888B9C9
S11300D083EC86B908951BBA8FEF8ABB88BB87BBB4
S11300E015BA90EF94BB90E892BB91BB13B882B958
S11300F010926200109261000895F894ECDFE4DF3E
S113010089D07894089574D04BED52E060E080E09B
S1130110CDD04BEE52E060E081E0C8D04BED52E030
S113012060E082E0C3C0089545E853E060E087E002
S1130130BDC00895E2DFE7DFF7DFFECF1D9A91E34C
S11301409A95F1F700001C981E981F9A8BBB81E3C7
S11301508A95F1F700001D9808951D9A91E39A95E8
S1130160F1F700001C981E9A1F988BBB81E38A95B7
S1130170F1F700001D9808951D9A91E39A95F1F7FF
S113018000001C981E9A1F9A8BBB81E38A95F1F795
S113019000001D9808951D9A91E39A95F1F70000C7
S11301A01C9A1E981F9A8BBB81E38A95F1F7000075
S11301B01D9808951D9A91E39A95F1F700001C9AF1
S11301C01E9A1F988BBB81E38A95F1F700001D9856
S11301D008951D9A91E39A95F1F700001C9A1E9ACE
S11301E01F9A8BBB81E38A95F1F700001D9808954F
S11301F0CF93DF93D8EB8D2FBFDF80E4BDDFC0E466
S113020080E0E7DFC150E1F7DF5FD03CA1F7DF9189
S1130210CF9108958FE3B0DF80ECAEDF88EBACDFE5
S113022080E4AACF08958093AE036093B107885405
S1130230A3DF8091B1078A3038F4982F990F890F82
S1130240880F8C5B7BCF089590E00A97982F990FC5
S1130250890F880F805C81CF08951F93CF93DF931C
S113026090E0EC01CC0FDD1FCC0FDD1F8C0F9D1F28
S1130270EC01C05ADF4F15E08091B1078A3018F4C1
S1130280888189DF02C0888195DF11502196111180
S1130290F3CF8091B1078A3018F480E07CDF02C08C
S11302A080E088DFDF91CF911F910895CF93DF9392
S11302B0EA018093AE036093B107B5DF8881882398
S11302C081F08091B1078A3011F480E446DF89918E
S11302D0C4DF8091B1078F5F8093B107888181115A
S10F02E0F0CFDF91CF910895F894FFCF88
S11302EC000000000000004F00000007000700148D
S11302FC7F147F14242A7F2A12231308646236493C
S113030C5522500005030000001C2241000041222C
S113031C1C0014083E081408083E0808005030005D
S113032C0008080808080060600000201008040297
S113033C3E5149453E00427F4000426151494621AD
S113034C41454B311814127F1027454545393C4A19
S113035C4949300171090503364949493606494969
S113036C291E0036360000005636000008142241BF
S113037C0014141414140041221408020151090627
S113038C324979413E7E1111117E7F494949363EED
S113039C414141227F4141221C7F494949417F0906
S11303AC0909013E4149497A7F0808087F00417FC9
S11303BC41002040413F017F081422417F404040CE
S11303CC407F020C027F7F0408107F3E4141413E76
S11303DC7F090909063E4151215E7F0919294626E8
S11303EC4949493201017F01013F4040403F1F20F0
S11303FC40201F3F4038403F6314081463070870C3
S113040C08076151494543007F414100020408102B
S113041C200041417F00040201020440404040405E
S113042C000102040020545454787F484444383862
S113043C44444420384444487F3854545418087E67
S113044C0901020C5252523E7F0804047800047DC8
S113045C00002040443D007F1028440000417F40B0
S113046C007C0418047C7C08040478384444443824
S113047C7C14141408081414187C7C08040408480C
S113048C54545420043F4440203C4040207C1C20C5
S113049C40201C3C4030403C44281028440C505014
S11304AC503C4464544C440008364100000077002E
S11304BC00004136080008040810083D3D3D3D3D50
S11304CC3D3D3D3D3D3D3D3D3D3D002A4A4F59534B
S11304DC5449434B20544553542A002E00202020C9
S11304EC202020202020202020202020004C4546A5
S11304FC5420202020202020202020200052494756
S113050C48542020202020202020202000444F5715
S113051C4E20202020202020202020200055502058
S113052C2020202020202020202020200044617422
S113053C615F41444333203A2000446174615F415C
S113054C4443332056203A2000446174615F414493
S113055C4334203A2000446174615F4144433420A5
S113056C56203A20002D2D2D2D2D2D2D2D2D2D2DBC
S113057C2D2D2D2D2D2D2D2D2D2D2D2D2D2D2D2D9B
S111058C2D2D2D2D2D2D2D2D2D2D2D2D2D0014
S9030000FC
