S012000067616D655F696E74726F2E73726563ED
S113000015C2000030C200002EC200002CC2000045
S11300102AC2000028C2000026C2000024C2000038
S113002022C2000020C200001EC200001CC2000048
S11300301AC2000018C2000016C2000014C2000058
S113004012C2000010C200000EC200000CC2000068
S11300500AC2000008C2000006C2000004C2000078
S113006002C2000000C20000FEC10000FCC100008A
S1130070FAC10000F8C10000F6C10000F4C100009C
S1130080F2C10000F0C10000EEC100000000000059
S1130090000000000000000000000000000000203C
S11300A041830C004000003F20F18FCC7E400000D3
S11300B00321998CCC02400000032119887C024062
S11300C000003F2109884C024000003F39098CCCD4
S11300D012700000202109878C12700000202199E1
S11300E0800C1240000020A0F1820C104000003F60
S11300F0A0618200134000000020018200FF400044
S11301000000200183FC0040000000200183FC006B
S1130110400000000000000000000000000000009B
S113012000000000000000000000000000000000CB
S113013000000000000000000000000000000000BB
S113014000000000000000000000000000000000AB
S1130150000000000000000000000000000000009B
S113016000000000000060000000080000000061C2
S11301700034000803F80003FD1FB400FF820C00E4
S1130180000104B4001C020C0000F9C4B40077039D
S1130190F8000189CDF400C180000001890DF4004C
S11301A0000FFE0001F909B401FFCFFE0000210990
S11301B034000803FC0000FF1934007F83FC0000B6
S11301C0FF0334007F800C0000C10034004183FC35
S11301D00000FF0034007F82000000FF0034007F35
S11301E083FC00000000000000000000000000008C
S11301F000000000000000000000000000000001FA
S1130200E000000000021000000000023F000000B7
S1130210000180C000000006003002000008000851
S1130220030000100004020000200002020000404D
S1130230000206000080800100000181000100002E
S11302400306001FE0000500C0E018000500C1001F
S1130250040002000201E20006000C021100064143
S11302609804108002825004088003066004004051
S1130270026E4002104001698001E000010180002B
S11302800020010B000000200086000000200082F6
S113029008000020004408000060002408000060FA
S11302A000140807E060000808000060000800016E
S11302B000600008000100600008100100E0000474
S11302C0600000800007C0020080000000020000FF
S11302D00000000201000180080001000100080480
S11302E0020000800804020000400804040000002A
S11302F0080404000000040C08000000061B1000A1
S1130300000001E0C0000000000000000000000048
S113031000000000000000000000000000000001D8
S1130320E000000000021000000000027F800000D6
S11303300007806000000004001803800018000C0F
S1130340028000300004028000400002038000406C
S1130350C0010700008180010400030300708000D5
S11303600506070F80000100C800C0000A0070786D
S113037060000A006084100006004104180006C1F1
S113038081020800038701020400030700840400BB
S1130390026A00CC020001140000020001140000F3
S11303A0030001080000030000890000028000C867
S11303B00000028000508000024000308042024071
S11303C00010803C02400020800802800020800849
S11303D003800020400802000020400802000020A2
S11303E0C0080200001180000200000E2004020078
S11303F001002004020000C0100402000080100468
S11304000200004008040400004008040400000046
S1130410040408000000020B1800000001F0E000D2
S113042000000000000000000000000011241FBEB6
S1130430CFEFD0E1DEBFCDBF12E0A0E0B1E0E6E94E
S1130440F8E000E00BBF02C007900D92AE3EB1078A
S1130450D9F726E0AEEEB2E001C01D92A23FB2078A
S1130460E1F71AD016C2CCCD1BBA8FEF8ABB9EEF30
S113047098BB87BB15BA90EF94BB90E892BB91BB35
S113048013B882B910926200109261000895F89432
S1130490EBDF9DD078940895FADF87D010D108E47B
S11304A028E240E060E08CE890E07BD14BED52E044
S11304B060E087E0D8D000E320E34BE460E08CE028
S11304C093E06FD12FEF8FE796E121508040904069
S11304D0E1F700C0000020E34BE460E08CEE91E023
S11304E060D12FEF8FE796E1215080409040E1F7F3
S11304F000C00000E0CF1D9A91E39A95F1F7000047
S11305001C981E981F9A8BBB81E38A95F1F7000013
S11305101D9808951D9A91E39A95F1F700001C988F
S11305201E9A1F988BBB81E38A95F1F700001D98F2
S113053008951D9A91E39A95F1F700001C981E9A6C
S11305401F9A8BBB81E38A95F1F700001D980895EB
S11305501D9A91E39A95F1F700001C9A1E981F9A30
S11305608BBB81E38A95F1F700001D9808951D9ACD
S113057091E39A95F1F700001C9A1E9A1F988BBB81
S113058081E38A95F1F700001D9808951D9A91E37F
S11305909A95F1F700001C9A1E9A1F9A8BBB81E36F
S11305A08A95F1F700001D980895CF93DF93D8EB57
S11305B08D2FBFDF80E4BDDFC0E480E0E7DFC15002
S11305C0E1F7DF5FD03CA1F7DF91CF9108958FE38E
S11305D0B0DF80ECAEDF88EBACDF80E4AACF089517
S11305E08093EE026093F1068854A3DF8091F106B4
S11305F08A3038F4982F990F890F880F8C5B7BCF42
S1130600089590E00A97982F990F890F880F805CBE
S113061081CF08951F93CF93DF9390E0EC01CC0F2B
S1130620DD1FCC0FDD1F8C0F9D1FEC01C05ADF4F67
S113063015E08091F1068A3018F4888189DF02C0C0
S1130640888195DF115021961111F3CF8091F10625
S11306508A3018F480E07CDF02C080E088DFDF911C
S1130660CF911F910895CF93DF93EA018093EE0217
S11306706093F106B5DF8881882381F08091F106CB
S11306808A3011F480E446DF8991C4DF8091F10659
S11306908F5F8093F10688818111F0CFDF91CF9134
S11306A00895CF93C62F885444DFC03420F480E4E7
S11306B08C0F21DF02C08C2F2DDFCF910895E1EF45
S11306C0F2E021EF36E008C01192E817F907E1F7EC
S11306D0FC018217930721F0CF0180589F4FF4CF7C
S11306E00895CF93DF93803408F058C066230CF448
S11306F055C0D82FD695D695D695877071F0813090
S113070071F0823071F0833071F0843071F0853093
S113071071F0863071F080E80DC081E00BC082E09A
S113072009C084E007C088E005C080E103C080E21E
S113073001C080E4452B69F490E8D99FF0011124AD
S1130740EF50FD4FE60FF11D809590818923808342
S11307500BC090E8D99FF0011124EF50FD4FE60F34
S1130760F11D9081892B8083C62F8D2F9ADFC03491
S113077058F480E8D89FF0011124EF50FD4FEC0F9E
S1130780F11D8081E5DE0AC090E8D99FF0011124B3
S1130790EF50FD4FEC0FF11D8081E9DEDF91CF9129
S11307A008954F925F926F927F928F929F92AF9231
S11307B0BF92CF92DF92EF92FF920F931F93CF934A
S11307C0DF93EC01442E222309F452C0522E560E1C
S11307D0762EE12CF12C602E640E0F2EF7E08F2E76
S11307E0912CF02DAA24A394B12C3EC0E114F10461
S11307F0B1F47E018FEFE81AF80AFE014491C42E89
S1130800D12C407850E0440F452F441F550B612FE5
S1130810872D67DFE701EE24E394F12C1FC09401D8
S11308202E193F09C501022E02C0880F991F0A9490
S1130830E2F7A60155274823592302C05595479549
S11308402A95E2F7612F872D4CDFFFEFEF1AFF0A9D
S113085088E0E816F10411F4E12CF12C1F5F161165
S1130860C5CF7394751421F00023D9F3142DBECF92
S1130870DF91CF911F910F91FF90EF90DF90CF9078
S1130880BF90AF909F908F907F906F905F904F90AC
S10908900895F894FFCF67
S1130896000000000000004F0000000700070014DD
S11308A67F147F14242A7F2A12231308646236498C
S11308B65522500005030000001C2241000041227D
S11308C61C0014083E081408083E080800503000AE
S11308D600080808080800606000002010080402E8
S11308E63E5149453E00427F4000426151494621FE
S11308F641454B311814127F1027454545393C4A6A
S113090649493001710905033649494936064949B9
S1130916291E00363600000056360000081422410F
S11309260014141414140041221408020151090677
S1130936324979413E7E1111117E7F494949363E3D
S1130946414141227F4141221C7F494949417F0956
S11309560909013E4149497A7F0808087F00417F19
S113096641002040413F017F081422417F4040401E
S1130976407F020C027F7F0408107F3E4141413EC6
S11309867F090909063E4151215E7F091929462638
S11309964949493201017F01013F4040403F1F2040
S11309A640201F3F4038403F631408146307087013
S11309B608076151494543007F414100020408107C
S11309C6200041417F0004020102044040404040AF
S11309D6000102040020545454787F4844443838B3
S11309E644444420384444487F3854545418087EB8
S11309F60901020C5252523E7F0804047800047D19
S1130A0600002040443D007F1028440000417F4000
S1130A16007C0418047C7C08040478384444443874
S1130A267C14141408081414187C7C08040408485C
S1130A3654545420043F4440203C4040207C1C2015
S1130A4640201C3C4030403C44281028440C505064
S1130A56503C4464544C440008364100000077007E
S1130A6600004136080008040810083C205052458E
S1110A76535320425554544F4E2030203E001E
S9030000FC
